:040000006F00804DC0
:100004000000000000000000600100006201000028
:1000140000000000D6040000000000000000000002
:10002400D6040000D6040000000000000000000018
:10003400D604000000000000D60400000000000008
:10004400D6040000D6040000D6040000D604000044
:10005400D6040000D6040000D6040000D604000034
:10006400D6040000D6040000D6040000D604000024
:10007400D6040000D6040000D6040000D604000014
:10008400D6040000D6040000D6040000D604000004
:10009400D6040000D6040000D6040000D6040000F4
:1000A400D6040000D6040000D6040000D6040000E4
:1000B400D6040000D6040000D6040000D6040000D4
:1000C400D6040000D6040000D6040000D6040000C4
:1000D400D6040000D6040000D6040000D6040000B4
:1000E400D6040000D6040000D6040000D6040000A4
:0C00F400D6040000D6040000D604000072
:10010000397101436EC619A0397141536AC866CA74
:1001100062CC5ECE19A0397101535AD056D252D456
:100120004ED64AD826DA22DC06DE330161408282CE
:1001300041114AC026C222C406C68282B24D410184
:10014000024D924C224CB24B4101024B924A224A40
:10015000B2494101024992442244B24041018280A5
:1001600001A0B707EFBE37E700E0938707083CC759
:1001700001A0EFF2FFFB411185457145312B37148A
:1001800001408D4411499307F00F4C001305048082
:100190007C8226C44AC6E1269307C03F4C00130563
:1001A00004C07C8226C44AC65D2E8D67938707F003
:1001B0004C00130504807C8226C44AC64D26856700
:1001C0007C824C00D1471305048026C43EC6412ED4
:1001D000E17741494C00130504807C8226C44AC65D
:1001E000BD2E13050480A56549215C4419674C00A8
:1001F000D98F5CC437150140788226C44AC685264B
:10020000410189BFEFF2DFF24111371401400D497E
:10021000C1449307F00F4C00130504807C824AC44C
:1002200026C6352E130504C09307C03F4C007C82C0
:100230004AC426C62D261305048058458567938732
:1002400007F05D8F58C54C007C824AC426C6012E3B
:100250008965371501402521916537150140052134
:100260004101CDBDEFF2DFEC4111371401400D49E2
:1002700091449307F00F4C00130504807C824AC41C
:1002800026C6F12C9307C03F4C00130504C07C82A6
:100290004AC426C6E9245C444C001305048093E755
:1002A000070F5CC48567938707F07C824AC426C623
:1002B0007D248965371501404D2E91653715014024
:1002C0006D268965371501405D2E410161B5EFF25C
:1002D0003FE6371401408327C4C04167130637C087
:1002E000F18F0A055D8D2326A4C08327C4801307E0
:1002F00007F013040480F98FDD8D4CC4228593052B
:100300000010B52E930500402285952E0545C92E77
:10031000228593050010912E930500402285B12679
:1003200005457D2E05BDEFF2BFE005459D2637143E
:100330000140092A4926353D13050480A16535266B
:10034000130504808565252E1304048089652285A4
:1003500001266DFD81447D3501449304C074130969
:100360000010B38784008C231375F40F05048537C0
:10037000E31924FF37140140856513050480F52433
:100380000545B92EA16513050480D52C05456126C8
:10039000A16513050480D12CF13501A0B7170240E7
:1003A0009843B706FFF01367170098C3D843758FBB
:1003B000D8C39843B706F7FEFD16758F98C39843C8
:1003C000B706FCFFFD16758F98C3D843B70601FF2B
:1003D000FD16758FD8C337079F0098C7B7460240F0
:1003E00003A706801367070123A0E680D843B7065A
:1003F000C1FFFD16D8C3D843D8C3D84313670740FD
:10040000D8C3D843758FD8C3D843B7063C00558F9F
:10041000D8C39843B7060001558F98C398439316E5
:100420006700E3DD06FED843B7160240719BD8C3D0
:10043000D84313672700D8C32147DC42B18BE39E22
:10044000E7FE8280B7160240DC42370700201146E3
:10045000B18B130707016385C70021466388C70274
:10046000B7177A00938707201CC3B7170240DC43F5
:10047000918393F6F700B707002093870700B6979C
:1004800094231C43B3D7D7001CC38280DC42D442E0
:100490004166C983BD8BF18E890745466393C700CA
:1004A000C94781EEB746024083A60680C18A89CE3D
:1004B000B7167A009386062021A8B7160240D442C8
:1004C0001396E600E35606FEB7163D0093860690A7
:1004D000B387D70251BF01A09701002093818133D8
:1004E00017510020130101B217050000130545360E
:1004F00097050020938505B11386818063FAC500B6
:100500008322050023A0550011059105E3EAC5FEED
:1005100013858180938541816377B5002320050091
:100520001105E36DB5FEFD42739002BC8D427390E0
:1005300042809302800873900230970200009382F9
:10054000A2AC93E2320073905230EFF03FE5970295
:100550000000938282DD73901234730020309C453A
:1005600013F7070113F8F70001C7D8413368E80013
:1005700037270240145B3707000F758F4DEB854618
:100580002384D180371701406315E5009A21358314
:100590009AA18E2113F7F50F39C318418146854E74
:1005A0003D4F930F800293028004214E3396DE006C
:1005B000B3F8C500631116039398260033131F0187
:1005C0001343F3FF3377E300B318180133E7E80070
:1005D0006397F70750C98506E39AC6FD18C113074C
:1005E000F00F6375B70454412146854E3D4F930F7C
:1005F000800293028004414EB398CE0033F7150178
:100600006392E8021317260001173313EF00134318
:10061000F3FFB376D3003317E800D98E6395F70361
:10062000232A15010506E319C6FD54C18280371738
:100630000140E310E5F603C7818021DF81BFE39C21
:1006400057F810C949BFE39F57FC23281501D9BFAC
:10065000B71701406316F50083C7818091C3B58148
:1006600008456D8D3335A0008280B71701406316B1
:10067000F50083C7818091C3B5810CC98280B7170B
:1006800001406316F50083C7818091C3B5814CC9D1
:10069000828023A6A180828099C5371702401C4F13
:1006A0005D8D08CF8280B7170240984F1345F5FF44
:1006B000798D88CF8280B707002083A7070137177D
:1006C0007A0013070720B3D7E70293F7F70F2389C0
:1006D000F1801307803EB387E7022398F180828080
:1006E000B7F700E0D8438146799BD8C303C721817F
:1006F0003306A70290CBD4CB98431367070198C366
:1007000098431367170298C3D843058B75DF984346
:10071000799B98C38280B7F700E0D8438146799BE4
:10072000D8C303D701813306A70290CBD4CB98431B
:100730001367070198C398431367170298C3D843F8
:10074000058B75DF9843799B98C38280C34000FF77
:10075000FFFFFFFFFFFFFFFFFFFFFFFFFFFFFFFFA9
:10076000FFFFFFFFFFFFFFFFFFFFFFFFFFFFFFFF99
:10077000FFFFFFFFFFFFFFFFFFFFFFFFFFFFFFFF89
:10078000FFFFFFFFFFFFFFFFFFFFFFFF3100803E86
:100790000FD31D3E07D31D3EFFD31CCD5B003E0093
:1007A000D31CCD5B0018F00EFF06FF0D20FD0520C9
:1007B000FAC9FF0000000000000000000000000077
:1007C0000000000000000000000000000000000029
:1007D0000000000000000000000000000000000019
:1007E0000000000000000000000000000000000009
:1007F00000000000000000000000000000000000F9
:1008000000000000000000000000000000000000E8
:1008100000000000000000000000000000000000D8
:1008200000000000000000000000000000000000C8
:1008300000000000000000000000000000000000B8
:0C084000000000000000000000000000AC
:10084C000000000000000000010203040607080974
:08085C000044950800000000B3
:00000001FF
